{
  "contractName": "MyNonFungibleToken",
  "abi": [
    {
      "constant": true,
      "inputs": [],
      "name": "name",
      "outputs": [
        {
          "name": "",
          "type": "string"
        }
      ],
      "payable": false,
      "stateMutability": "view",
      "type": "function"
    },
    {
      "constant": true,
      "inputs": [],
      "name": "generatedTo",
      "outputs": [
        {
          "name": "",
          "type": "address"
        }
      ],
      "payable": false,
      "stateMutability": "view",
      "type": "function"
    },
    {
      "constant": true,
      "inputs": [],
      "name": "symbol",
      "outputs": [
        {
          "name": "",
          "type": "string"
        }
      ],
      "payable": false,
      "stateMutability": "view",
      "type": "function"
    },
    {
      "inputs": [],
      "payable": false,
      "stateMutability": "nonpayable",
      "type": "constructor"
    },
    {
      "anonymous": false,
      "inputs": [
        {
          "indexed": false,
          "name": "owner",
          "type": "address"
        },
        {
          "indexed": false,
          "name": "tokenId",
          "type": "uint256"
        }
      ],
      "name": "Mint",
      "type": "event"
    },
    {
      "anonymous": false,
      "inputs": [
        {
          "indexed": false,
          "name": "from",
          "type": "address"
        },
        {
          "indexed": false,
          "name": "to",
          "type": "address"
        },
        {
          "indexed": false,
          "name": "tokenId",
          "type": "uint256"
        }
      ],
      "name": "Transfer",
      "type": "event"
    },
    {
      "anonymous": false,
      "inputs": [
        {
          "indexed": false,
          "name": "owner",
          "type": "address"
        },
        {
          "indexed": false,
          "name": "approved",
          "type": "address"
        },
        {
          "indexed": false,
          "name": "tokenId",
          "type": "uint256"
        }
      ],
      "name": "Approval",
      "type": "event"
    },
    {
      "constant": true,
      "inputs": [
        {
          "name": "_interfaceID",
          "type": "bytes4"
        }
      ],
      "name": "supportsInterface",
      "outputs": [
        {
          "name": "",
          "type": "bool"
        }
      ],
      "payable": false,
      "stateMutability": "view",
      "type": "function"
    },
    {
      "constant": true,
      "inputs": [],
      "name": "totalSupply",
      "outputs": [
        {
          "name": "",
          "type": "uint256"
        }
      ],
      "payable": false,
      "stateMutability": "view",
      "type": "function"
    },
    {
      "constant": true,
      "inputs": [
        {
          "name": "_owner",
          "type": "address"
        }
      ],
      "name": "balanceOf",
      "outputs": [
        {
          "name": "",
          "type": "uint256"
        }
      ],
      "payable": false,
      "stateMutability": "view",
      "type": "function"
    },
    {
      "constant": true,
      "inputs": [
        {
          "name": "_tokenId",
          "type": "uint256"
        }
      ],
      "name": "ownerOf",
      "outputs": [
        {
          "name": "owner",
          "type": "address"
        }
      ],
      "payable": false,
      "stateMutability": "view",
      "type": "function"
    },
    {
      "constant": false,
      "inputs": [
        {
          "name": "_to",
          "type": "address"
        },
        {
          "name": "_tokenId",
          "type": "uint256"
        }
      ],
      "name": "transfer",
      "outputs": [],
      "payable": false,
      "stateMutability": "nonpayable",
      "type": "function"
    },
    {
      "constant": false,
      "inputs": [
        {
          "name": "_generator",
          "type": "address"
        }
      ],
      "name": "isGenerator",
      "outputs": [
        {
          "name": "state",
          "type": "bool"
        }
      ],
      "payable": false,
      "stateMutability": "nonpayable",
      "type": "function"
    },
    {
      "constant": false,
      "inputs": [
        {
          "name": "_generator",
          "type": "address"
        }
      ],
      "name": "addGenerators",
      "outputs": [],
      "payable": false,
      "stateMutability": "nonpayable",
      "type": "function"
    },
    {
      "constant": false,
      "inputs": [
        {
          "name": "_generatedTo",
          "type": "address"
        },
        {
          "name": "_carNo",
          "type": "string"
        },
        {
          "name": "_cardetails",
          "type": "string"
        }
      ],
      "name": "mint",
      "outputs": [
        {
          "name": "",
          "type": "uint256"
        }
      ],
      "payable": false,
      "stateMutability": "nonpayable",
      "type": "function"
    },
    {
      "constant": true,
      "inputs": [
        {
          "name": "_tokenId",
          "type": "uint256"
        }
      ],
      "name": "getToken",
      "outputs": [
        {
          "name": "Id",
          "type": "uint256"
        },
        {
          "name": "mintedBy",
          "type": "address"
        },
        {
          "name": "mintedTo",
          "type": "address"
        },
        {
          "name": "currentOwner",
          "type": "address"
        },
        {
          "name": "mintedAt",
          "type": "uint64"
        },
        {
          "name": "carNo",
          "type": "string"
        },
        {
          "name": "carDetails",
          "type": "string"
        }
      ],
      "payable": false,
      "stateMutability": "view",
      "type": "function"
    }
  ],
  "bytecode": "0x60806040526000600255600060045534801561001a57600080fd5b50336000806101000a81548173ffffffffffffffffffffffffffffffffffffffff021916908373ffffffffffffffffffffffffffffffffffffffff16021790555061154f8061006a6000396000f3006080604052600436106100ba576000357c0100000000000000000000000000000000000000000000000000000000900463ffffffff16806301ffc9a7146100bf57806306fdde03146101235780630ca966ab146101b357806318160ddd1461020a5780636352211e1461023557806370a08231146102a257806395d89b41146102f95780639907119014610389578063a9059cbb14610410578063bc8b7e1d1461045d578063e4b50cb8146104b8578063f13e4f4714610685575b600080fd5b3480156100cb57600080fd5b5061010960048036038101908080357bffffffffffffffffffffffffffffffffffffffffffffffffffffffff191690602001909291905050506106c8565b604051808215151515815260200191505060405180910390f35b34801561012f57600080fd5b5061013861090e565b6040518080602001828103825283818151815260200191508051906020019080838360005b8381101561017857808201518184015260208101905061015d565b50505050905090810190601f1680156101a55780820380516001836020036101000a031916815260200191505b509250505060405180910390f35b3480156101bf57600080fd5b506101c8610947565b604051808273ffffffffffffffffffffffffffffffffffffffff1673ffffffffffffffffffffffffffffffffffffffff16815260200191505060405180910390f35b34801561021657600080fd5b5061021f61096d565b6040518082815260200191505060405180910390f35b34801561024157600080fd5b5061026060048036038101908080359060200190929190505050610977565b604051808273ffffffffffffffffffffffffffffffffffffffff1673ffffffffffffffffffffffffffffffffffffffff16815260200191505060405180910390f35b3480156102ae57600080fd5b506102e3600480360381019080803573ffffffffffffffffffffffffffffffffffffffff1690602001909291905050506109f0565b6040518082815260200191505060405180910390f35b34801561030557600080fd5b5061030e610a39565b6040518080602001828103825283818151815260200191508051906020019080838360005b8381101561034e578082015181840152602081019050610333565b50505050905090810190601f16801561037b5780820380516001836020036101000a031916815260200191505b509250505060405180910390f35b34801561039557600080fd5b506103fa600480360381019080803573ffffffffffffffffffffffffffffffffffffffff169060200190929190803590602001908201803590602001919091929391929390803590602001908201803590602001919091929391929390505050610a72565b6040518082815260200191505060405180910390f35b34801561041c57600080fd5b5061045b600480360381019080803573ffffffffffffffffffffffffffffffffffffffff16906020019092919080359060200190929190505050610b47565b005b34801561046957600080fd5b5061049e600480360381019080803573ffffffffffffffffffffffffffffffffffffffff169060200190929190505050610c94565b604051808215151515815260200191505060405180910390f35b3480156104c457600080fd5b506104e360048036038101908080359060200190929190505050610ced565b604051808881526020018773ffffffffffffffffffffffffffffffffffffffff1673ffffffffffffffffffffffffffffffffffffffff1681526020018673ffffffffffffffffffffffffffffffffffffffff1673ffffffffffffffffffffffffffffffffffffffff1681526020018573ffffffffffffffffffffffffffffffffffffffff1673ffffffffffffffffffffffffffffffffffffffff1681526020018467ffffffffffffffff1667ffffffffffffffff1681526020018060200180602001838103835285818151815260200191508051906020019080838360005b838110156105dd5780820151818401526020810190506105c2565b50505050905090810190601f16801561060a5780820380516001836020036101000a031916815260200191505b50838103825284818151815260200191508051906020019080838360005b83811015610643578082015181840152602081019050610628565b50505050905090810190601f1680156106705780820380516001836020036101000a031916815260200191505b50995050505050505050505060405180910390f35b34801561069157600080fd5b506106c6600480360381019080803573ffffffffffffffffffffffffffffffffffffffff169060200190929190505050610f40565b005b600060405180807f737570706f727473496e74657266616365286279746573342900000000000000815250601901905060405180910390207bffffffffffffffffffffffffffffffffffffffffffffffffffffffff1916827bffffffffffffffffffffffffffffffffffffffffffffffffffffffff19161480610907575060405180807f7472616e7366657228616464726573732c75696e7432353629000000000000008152506019019050604051809103902060405180807f617070726f766528616464726573732c75696e743235362900000000000000008152506018019050604051809103902060405180807f6f776e65724f662875696e7432353629000000000000000000000000000000008152506010019050604051809103902060405180807f62616c616e63654f6628616464726573732900000000000000000000000000008152506012019050604051809103902060405180807f746f74616c537570706c79282900000000000000000000000000000000000000815250600d019050604051809103902060405180807f73796d626f6c28290000000000000000000000000000000000000000000000008152506008019050604051809103902060405180807f6e616d6528290000000000000000000000000000000000000000000000000000815250600601905060405180910390201818181818187bffffffffffffffffffffffffffffffffffffffffffffffffffffffff1916827bffffffffffffffffffffffffffffffffffffffffffffffffffffffff1916145b9050919050565b6040805190810160405280601281526020017f4d794e6f6e46756e6769626c65546f6b656e000000000000000000000000000081525081565b600160009054906101000a900473ffffffffffffffffffffffffffffffffffffffff1681565b6000600454905090565b60006006600083815260200190815260200160002060009054906101000a900473ffffffffffffffffffffffffffffffffffffffff169050600073ffffffffffffffffffffffffffffffffffffffff168173ffffffffffffffffffffffffffffffffffffffff16141515156109eb57600080fd5b919050565b6000600760008373ffffffffffffffffffffffffffffffffffffffff1673ffffffffffffffffffffffffffffffffffffffff168152602001908152602001600020549050919050565b6040805190810160405280600481526020017f4d4e46540000000000000000000000000000000000000000000000000000000081525081565b6000600360003373ffffffffffffffffffffffffffffffffffffffff1673ffffffffffffffffffffffffffffffffffffffff16815260200190815260200160002060009054906101000a900460ff161515610acc57600080fd5b610b3c338787878080601f01602080910402602001604051908101604052809392919081815260200183838082843782019150505050505086868080601f016020809104026020016040519081016040528093929190818152602001838380828437820191505050505050610ff6565b905095945050505050565b806005600082815260200190815260200160002060000160009054906101000a900473ffffffffffffffffffffffffffffffffffffffff1673ffffffffffffffffffffffffffffffffffffffff163373ffffffffffffffffffffffffffffffffffffffff16141515610bb857600080fd5b600073ffffffffffffffffffffffffffffffffffffffff168373ffffffffffffffffffffffffffffffffffffffff1614151515610bf457600080fd5b3073ffffffffffffffffffffffffffffffffffffffff168373ffffffffffffffffffffffffffffffffffffffff1614151515610c2f57600080fd5b826005600084815260200190815260200160002060000160006101000a81548173ffffffffffffffffffffffffffffffffffffffff021916908373ffffffffffffffffffffffffffffffffffffffff160217905550610c8f338484611227565b505050565b6000600360008373ffffffffffffffffffffffffffffffffffffffff1673ffffffffffffffffffffffffffffffffffffffff16815260200190815260200160002060009054906101000a900460ff169050809050919050565b60008060008060006060808796506005600089815260200190815260200160002060010160009054906101000a900473ffffffffffffffffffffffffffffffffffffffff1695506005600089815260200190815260200160002060020160009054906101000a900473ffffffffffffffffffffffffffffffffffffffff1694506005600089815260200190815260200160002060000160009054906101000a900473ffffffffffffffffffffffffffffffffffffffff1693506005600089815260200190815260200160002060020160149054906101000a900467ffffffffffffffff169250600560008981526020019081526020016000206003018054600181600116156101000203166002900480601f016020809104026020016040519081016040528092919081815260200182805460018160011615610100020316600290048015610e7d5780601f10610e5257610100808354040283529160200191610e7d565b820191906000526020600020905b815481529060010190602001808311610e6057829003601f168201915b50505050509150600560008981526020019081526020016000206004018054600181600116156101000203166002900480601f016020809104026020016040519081016040528092919081815260200182805460018160011615610100020316600290048015610f2e5780601f10610f0357610100808354040283529160200191610f2e565b820191906000526020600020905b815481529060010190602001808311610f1157829003601f168201915b50505050509050919395979092949650565b6000809054906101000a900473ffffffffffffffffffffffffffffffffffffffff1673ffffffffffffffffffffffffffffffffffffffff163373ffffffffffffffffffffffffffffffffffffffff16141515610f9b57600080fd5b6001600360008373ffffffffffffffffffffffffffffffffffffffff1673ffffffffffffffffffffffffffffffffffffffff16815260200190815260200160002060006101000a81548160ff02191690831515021790555050565b60006004600081548092919060010191905055508460056000600454815260200190815260200160002060010160006101000a81548173ffffffffffffffffffffffffffffffffffffffff021916908373ffffffffffffffffffffffffffffffffffffffff1602179055508360056000600454815260200190815260200160002060020160006101000a81548173ffffffffffffffffffffffffffffffffffffffff021916908373ffffffffffffffffffffffffffffffffffffffff1602179055508360056000600454815260200190815260200160002060000160006101000a81548173ffffffffffffffffffffffffffffffffffffffff021916908373ffffffffffffffffffffffffffffffffffffffff1602179055504260056000600454815260200190815260200160002060020160146101000a81548167ffffffffffffffff021916908367ffffffffffffffff16021790555082600560006004548152602001908152602001600020600301908051906020019061117a92919061147e565b508160056000600454815260200190815260200160002060040190805190602001906111a792919061147e565b507f0f6798a560793a54c3bcfe86a93cde1e73087d944c0ea20544137d41213968858482604051808373ffffffffffffffffffffffffffffffffffffffff1673ffffffffffffffffffffffffffffffffffffffff1681526020018281526020019250505060405180910390a161121f60008583611227565b949350505050565b600760008373ffffffffffffffffffffffffffffffffffffffff1673ffffffffffffffffffffffffffffffffffffffff16815260200190815260200160002060008154809291906001019190505550816006600083815260200190815260200160002060006101000a81548173ffffffffffffffffffffffffffffffffffffffff021916908373ffffffffffffffffffffffffffffffffffffffff160217905550600073ffffffffffffffffffffffffffffffffffffffff168373ffffffffffffffffffffffffffffffffffffffff1614151561138557600760008473ffffffffffffffffffffffffffffffffffffffff1673ffffffffffffffffffffffffffffffffffffffff16815260200190815260200160002060008154809291906001900391905055506008600082815260200190815260200160002060006101000a81549073ffffffffffffffffffffffffffffffffffffffff02191690555b816005600083815260200190815260200160002060000160006101000a81548173ffffffffffffffffffffffffffffffffffffffff021916908373ffffffffffffffffffffffffffffffffffffffff1602179055507fddf252ad1be2c89b69c2b068fc378daa952ba7f163c4a11628f55a4df523b3ef838383604051808473ffffffffffffffffffffffffffffffffffffffff1673ffffffffffffffffffffffffffffffffffffffff1681526020018373ffffffffffffffffffffffffffffffffffffffff1673ffffffffffffffffffffffffffffffffffffffff168152602001828152602001935050505060405180910390a1505050565b828054600181600116156101000203166002900490600052602060002090601f016020900481019282601f106114bf57805160ff19168380011785556114ed565b828001600101855582156114ed579182015b828111156114ec5782518255916020019190600101906114d1565b5b5090506114fa91906114fe565b5090565b61152091905b8082111561151c576000816000905550600101611504565b5090565b905600a165627a7a7230582035c186edaafa2bbf353f0c3f41d38acc9818a532406b9fcd2d61f4ed4386151d0029",
  "source": "pragma solidity ^0.4.18;\n\nimport \"./ERC721.sol\";\n\ncontract MyNonFungibleToken is ERC721 {\n  /*** CONSTANTS ***/\n\n  string public constant name = \"MyNonFungibleToken\";\n  string public constant symbol = \"MNFT\";\n  address contractOwner;\n  address public generatedTo;\n  uint256 prescribersCount=0;\n  mapping (address => bool) generators;\n  uint256 identityCount=0;\n\n  bytes4 constant InterfaceID_ERC165 = bytes4(keccak256('supportsInterface(bytes4)'));\n\n  bytes4 constant InterfaceID_ERC721 =\n    bytes4(keccak256('name()')) ^\n    bytes4(keccak256('symbol()')) ^\n    bytes4(keccak256('totalSupply()')) ^\n    bytes4(keccak256('balanceOf(address)')) ^\n    bytes4(keccak256('ownerOf(uint256)')) ^\n    bytes4(keccak256('approve(address,uint256)')) ^\n    bytes4(keccak256('transfer(address,uint256)')) ;\n    //bytes4(keccak256('transfe\n\n\n  /*** DATA TYPES ***/\n\n  struct Token {\n    address currentOwner;\n    address mintedBy;\n    address mintedTo;\n    uint64 mintedAt;\n    string carNo;\n    string carDetails;\n  }\n\n\n  /*** STORAGE ***/\n\n  mapping (uint256 => Token) token;\n\n  mapping (uint256 => address) tokenIndexToOwner;\n  mapping (address => uint256) ownershipTokenCount;\n  mapping (uint256 => address) tokenIndexToApproved;\n\n\n  /*** EVENTS ***/\n\n  event Mint(address owner, uint256 tokenId);\n\n\n  /*** INTERNAL FUNCTIONS ***/\n\n  function _owns(address _claimant, uint256 _tokenId) internal view returns (bool) {\n    return tokenIndexToOwner[_tokenId] == _claimant;\n  }\n\n  function _transfer(address _from, address _to, uint256 _tokenId) internal {\n    ownershipTokenCount[_to]++;\n    tokenIndexToOwner[_tokenId] = _to;\n\n    if (_from != address(0)) {\n      ownershipTokenCount[_from]--;\n      delete tokenIndexToApproved[_tokenId];\n    }\n    token[_tokenId].currentOwner = _to;\n\n    emit Transfer(_from, _to, _tokenId);\n  }\n\n  function _mint(address _generator,address _generatedTo,string _carNo, string _cardetails) internal returns (uint256 tokenId) {\n    identityCount++;\n    token[identityCount].mintedBy = _generator;\n    token[identityCount].mintedTo = _generatedTo;\n    token[identityCount].currentOwner = _generatedTo;\n    token[identityCount].mintedAt = uint64(now);\n    token[identityCount].carNo = _carNo;\n    token[identityCount].carDetails = _cardetails;\n\n    emit Mint(_generatedTo, tokenId);\n\n    _transfer(0, _generatedTo, tokenId);\n  }\n\n\n  /*** ERC721 IMPLEMENTATION ***/\n\n  function supportsInterface(bytes4 _interfaceID) external view returns (bool) {\n    return ((_interfaceID == InterfaceID_ERC165) || (_interfaceID == InterfaceID_ERC721));\n  }\n\n  function totalSupply() public view returns (uint256) {\n    return identityCount;\n  }\n\n  function balanceOf(address _owner) public view returns (uint256) {\n    return ownershipTokenCount[_owner];\n  }\n\n  function ownerOf(uint256 _tokenId) external view returns (address owner) {\n    owner = tokenIndexToOwner[_tokenId];\n\n    require(owner != address(0));\n  }\n\n  function transfer(address _to, uint256 _tokenId) external canTransfer(_tokenId) {\n    require(_to != address(0));\n    require(_to != address(this));\n    //require(_owns(msg.sender, _tokenId));\n    //Token memory token = tokens[_tokenId];\n    token[_tokenId].currentOwner = _to;\n    \n    _transfer(msg.sender, _to, _tokenId);\n  }\n  \n  modifier canTransfer(uint256 _tokenId){\n    require (msg.sender == token[_tokenId].currentOwner);\n    _;  \n  }\n\n\n  /*** OTHER EXTERNAL FUNCTIONS ***/\n\n  constructor() public{\n    contractOwner = msg.sender;\n  }\n\n  modifier canAdd{\n    require(msg.sender == contractOwner);\n    _;\n  }\n\n  function isGenerator(address _generator)  public returns(bool state){\n    return state = generators[_generator];\n  }   \n\n  function addGenerators(address _generator) public canAdd {\n    generators[_generator] = true ;\n  }\n\n  modifier onlyByGenerator() {\n      require(generators[msg.sender]);\n    _;\n  }\n\n  function mint(address _generatedTo,string _carNo, string _cardetails) onlyByGenerator external returns (uint256)  {\n    return _mint(msg.sender,_generatedTo,_carNo,_cardetails);\n  }\n\n  function getToken(uint256 _tokenId) external view returns (uint256 Id, address mintedBy, address mintedTo, address currentOwner, uint64 mintedAt, string carNo, string carDetails) {\n    Id=_tokenId;\n    mintedBy = token[_tokenId].mintedBy;\n    mintedTo = token[_tokenId].mintedTo;\n    currentOwner = token[_tokenId].currentOwner;\n    mintedAt = token[_tokenId].mintedAt;\n    carNo = token[_tokenId].carNo;\n    carDetails = token[_tokenId].carDetails;\n  \n  }\n}",
  "sourcePath": "/home/ahmed/Documents/ERC721/ERC721-token-sample/contracts/MyNonFungibleToken.sol",
  "compiler": {
    "name": "solc",
    "version": "0.4.24+commit.e67f0147.Emscripten.clang"
  },
  "schemaVersion": "2.0.0",
  "updatedAt": "2019-02-26T13:25:44.251Z"
}